{
    "contractName": "SimpleStorage",
    "abi": [
        {
            "inputs": [
                {
                    "internalType": "uint256",
                    "name": "num",
                    "type": "uint256"
                }
            ],
            "stateMutability": "nonpayable",
            "type": "constructor"
        },
        {
            "inputs": [],
            "name": "getBalance",
            "outputs": [
                {
                    "internalType": "uint256",
                    "name": "",
                    "type": "uint256"
                }
            ],
            "stateMutability": "view",
            "type": "function"
        },
        {
            "inputs": [
                {
                    "internalType": "uint256",
                    "name": "num",
                    "type": "uint256"
                }
            ],
            "name": "setBalance",
            "outputs": [],
            "stateMutability": "nonpayable",
            "type": "function"
        }
    ],
    "bytecode": "608060405234801561000f575f80fd5b506040516100fd3803806100fd83398101604081905261002e91610035565b5f5561004c565b5f60208284031215610045575f80fd5b5051919050565b60a5806100585f395ff3fe6080604052348015600e575f80fd5b50600436106030575f3560e01c806312065fe0146034578063fb1669ca146048575b5f80fd5b5f5460405190815260200160405180910390f35b605760533660046059565b5f55565b005b5f602082840312156068575f80fd5b503591905056fea26469706673582212205e1969f600c44b5f2e878077c1d748e7531d0abcb5ac91776b6d6a7eb3f18de664736f6c63430008160033",
    "sourcePath": "/Users/bharat/Documents/blockchain-learning-week-2/SimpleStorage.sol",
    "compiler": {
        "name": "solc",
        "version": "0.8.22+commit.4fc1097e"
    },
    "functionHashes": {
        "getBalance()": "12065fe0",
        "setBalance(uint256)": "fb1669ca"
    },
    "gasEstimates": {
        "creation": {
            "codeDepositCost": "33000",
            "executionCost": "infinite",
            "totalCost": "infinite"
        },
        "external": {
            "getBalance()": "2244",
            "setBalance(uint256)": "22309"
        }
    }
}